{
  "contractName": "Metaverse721Wallet",
  "abi": [
    {
      "inputs": [
        {
          "internalType": "address",
          "name": "_metaverseNFT721",
          "type": "address"
        }
      ],
      "stateMutability": "nonpayable",
      "type": "constructor"
    },
    {
      "anonymous": false,
      "inputs": [
        {
          "indexed": true,
          "internalType": "address",
          "name": "previousOwner",
          "type": "address"
        },
        {
          "indexed": true,
          "internalType": "address",
          "name": "newOwner",
          "type": "address"
        }
      ],
      "name": "OwnershipTransferred",
      "type": "event"
    },
    {
      "anonymous": false,
      "inputs": [
        {
          "indexed": true,
          "internalType": "bytes32",
          "name": "role",
          "type": "bytes32"
        },
        {
          "indexed": true,
          "internalType": "bytes32",
          "name": "previousAdminRole",
          "type": "bytes32"
        },
        {
          "indexed": true,
          "internalType": "bytes32",
          "name": "newAdminRole",
          "type": "bytes32"
        }
      ],
      "name": "RoleAdminChanged",
      "type": "event"
    },
    {
      "anonymous": false,
      "inputs": [
        {
          "indexed": true,
          "internalType": "bytes32",
          "name": "role",
          "type": "bytes32"
        },
        {
          "indexed": true,
          "internalType": "address",
          "name": "account",
          "type": "address"
        },
        {
          "indexed": true,
          "internalType": "address",
          "name": "sender",
          "type": "address"
        }
      ],
      "name": "RoleGranted",
      "type": "event"
    },
    {
      "anonymous": false,
      "inputs": [
        {
          "indexed": true,
          "internalType": "bytes32",
          "name": "role",
          "type": "bytes32"
        },
        {
          "indexed": true,
          "internalType": "address",
          "name": "account",
          "type": "address"
        },
        {
          "indexed": true,
          "internalType": "address",
          "name": "sender",
          "type": "address"
        }
      ],
      "name": "RoleRevoked",
      "type": "event"
    },
    {
      "inputs": [],
      "name": "DEFAULT_ADMIN_ROLE",
      "outputs": [
        {
          "internalType": "bytes32",
          "name": "",
          "type": "bytes32"
        }
      ],
      "stateMutability": "view",
      "type": "function",
      "constant": true
    },
    {
      "inputs": [],
      "name": "MINTER_ROLE",
      "outputs": [
        {
          "internalType": "bytes32",
          "name": "",
          "type": "bytes32"
        }
      ],
      "stateMutability": "view",
      "type": "function",
      "constant": true
    },
    {
      "inputs": [
        {
          "internalType": "bytes32",
          "name": "role",
          "type": "bytes32"
        }
      ],
      "name": "getRoleAdmin",
      "outputs": [
        {
          "internalType": "bytes32",
          "name": "",
          "type": "bytes32"
        }
      ],
      "stateMutability": "view",
      "type": "function",
      "constant": true
    },
    {
      "inputs": [
        {
          "internalType": "bytes32",
          "name": "role",
          "type": "bytes32"
        },
        {
          "internalType": "uint256",
          "name": "index",
          "type": "uint256"
        }
      ],
      "name": "getRoleMember",
      "outputs": [
        {
          "internalType": "address",
          "name": "",
          "type": "address"
        }
      ],
      "stateMutability": "view",
      "type": "function",
      "constant": true
    },
    {
      "inputs": [
        {
          "internalType": "bytes32",
          "name": "role",
          "type": "bytes32"
        }
      ],
      "name": "getRoleMemberCount",
      "outputs": [
        {
          "internalType": "uint256",
          "name": "",
          "type": "uint256"
        }
      ],
      "stateMutability": "view",
      "type": "function",
      "constant": true
    },
    {
      "inputs": [
        {
          "internalType": "bytes32",
          "name": "role",
          "type": "bytes32"
        },
        {
          "internalType": "address",
          "name": "account",
          "type": "address"
        }
      ],
      "name": "grantRole",
      "outputs": [],
      "stateMutability": "nonpayable",
      "type": "function"
    },
    {
      "inputs": [
        {
          "internalType": "bytes32",
          "name": "role",
          "type": "bytes32"
        },
        {
          "internalType": "address",
          "name": "account",
          "type": "address"
        }
      ],
      "name": "hasRole",
      "outputs": [
        {
          "internalType": "bool",
          "name": "",
          "type": "bool"
        }
      ],
      "stateMutability": "view",
      "type": "function",
      "constant": true
    },
    {
      "inputs": [],
      "name": "owner",
      "outputs": [
        {
          "internalType": "address",
          "name": "",
          "type": "address"
        }
      ],
      "stateMutability": "view",
      "type": "function",
      "constant": true
    },
    {
      "inputs": [],
      "name": "renounceOwnership",
      "outputs": [],
      "stateMutability": "nonpayable",
      "type": "function"
    },
    {
      "inputs": [
        {
          "internalType": "bytes32",
          "name": "role",
          "type": "bytes32"
        },
        {
          "internalType": "address",
          "name": "account",
          "type": "address"
        }
      ],
      "name": "renounceRole",
      "outputs": [],
      "stateMutability": "nonpayable",
      "type": "function"
    },
    {
      "inputs": [
        {
          "internalType": "bytes32",
          "name": "role",
          "type": "bytes32"
        },
        {
          "internalType": "address",
          "name": "account",
          "type": "address"
        }
      ],
      "name": "revokeRole",
      "outputs": [],
      "stateMutability": "nonpayable",
      "type": "function"
    },
    {
      "inputs": [
        {
          "internalType": "bytes4",
          "name": "interfaceId",
          "type": "bytes4"
        }
      ],
      "name": "supportsInterface",
      "outputs": [
        {
          "internalType": "bool",
          "name": "",
          "type": "bool"
        }
      ],
      "stateMutability": "view",
      "type": "function",
      "constant": true
    },
    {
      "inputs": [
        {
          "internalType": "address",
          "name": "newOwner",
          "type": "address"
        }
      ],
      "name": "transferOwnership",
      "outputs": [],
      "stateMutability": "nonpayable",
      "type": "function"
    },
    {
      "inputs": [
        {
          "internalType": "string",
          "name": "myUri",
          "type": "string"
        }
      ],
      "name": "vendingMachine",
      "outputs": [],
      "stateMutability": "payable",
      "type": "function",
      "payable": true
    },
    {
      "inputs": [
        {
          "internalType": "address",
          "name": "tokenAddress",
          "type": "address"
        },
        {
          "internalType": "uint256",
          "name": "tokenId",
          "type": "uint256"
        },
        {
          "internalType": "address",
          "name": "to",
          "type": "address"
        }
      ],
      "name": "transferTo",
      "outputs": [],
      "stateMutability": "nonpayable",
      "type": "function"
    }
  ],
  "bytecode": "0x6101406040523480156200001257600080fd5b506040516200220f3803806200220f83398181016040528101906200003891906200033a565b6040518060400160405280601281526020017f4d657461766572736537323157616c6c657400000000000000000000000000008152506040518060400160405280600181526020017f340000000000000000000000000000000000000000000000000000000000000081525060008280519060200120905060008280519060200120905060007f8b73c3c69bb8fe3d512ecc4cf759cc79239f7b179b0ffacaa9a75d522b39400f90508260e081815250508161010081815250504660a081815250506200010d818484620001c660201b60201c565b608081815250503073ffffffffffffffffffffffffffffffffffffffff1660c08173ffffffffffffffffffffffffffffffffffffffff1681525050806101208181525050505050505060016002819055506200017e620001726200020260201b60201c565b6200020a60201b60201c565b80600460006101000a81548173ffffffffffffffffffffffffffffffffffffffff021916908373ffffffffffffffffffffffffffffffffffffffff1602179055505062000410565b60008383834630604051602001620001e3959493929190620003b3565b6040516020818303038152906040528051906020012090509392505050565b600033905090565b6000600360009054906101000a900473ffffffffffffffffffffffffffffffffffffffff16905081600360006101000a81548173ffffffffffffffffffffffffffffffffffffffff021916908373ffffffffffffffffffffffffffffffffffffffff1602179055508173ffffffffffffffffffffffffffffffffffffffff168173ffffffffffffffffffffffffffffffffffffffff167f8be0079c531659141344cd1fd0a4f28419497f9722a3daafe3b4186f6b6457e060405160405180910390a35050565b600080fd5b600073ffffffffffffffffffffffffffffffffffffffff82169050919050565b60006200030282620002d5565b9050919050565b6200031481620002f5565b81146200032057600080fd5b50565b600081519050620003348162000309565b92915050565b600060208284031215620003535762000352620002d0565b5b6000620003638482850162000323565b91505092915050565b6000819050919050565b62000381816200036c565b82525050565b6000819050919050565b6200039c8162000387565b82525050565b620003ad81620002f5565b82525050565b600060a082019050620003ca600083018862000376565b620003d9602083018762000376565b620003e8604083018662000376565b620003f7606083018562000391565b620004066080830184620003a2565b9695505050505050565b60805160a05160c05160e0516101005161012051611dc16200044e600039600050506000505060005050600050506000505060005050611dc16000f3fe6080604052600436106100e85760003560e01c80638da5cb5b1161008a578063ca15c87311610059578063ca15c873146102e5578063d539139314610322578063d547741f1461034d578063f2fde38b14610376576100e8565b80638da5cb5b146102155780639010d07c1461024057806391d148541461027d578063a217fddf146102ba576100e8565b806336568abe116100c657806336568abe14610190578063715018a6146101b9578063729da987146101d057806386c69af8146101ec576100e8565b806301ffc9a7146100ed578063248a9ca31461012a5780632f2ff15d14610167575b600080fd5b3480156100f957600080fd5b50610114600480360381019061010f9190611302565b61039f565b604051610121919061134a565b60405180910390f35b34801561013657600080fd5b50610151600480360381019061014c919061139b565b610419565b60405161015e91906113d7565b60405180910390f35b34801561017357600080fd5b5061018e60048036038101906101899190611450565b610438565b005b34801561019c57600080fd5b506101b760048036038101906101b29190611450565b610459565b005b3480156101c557600080fd5b506101ce6104dc565b005b6101ea60048036038101906101e591906115d6565b610564565b005b3480156101f857600080fd5b50610213600480360381019061020e9190611655565b610641565b005b34801561022157600080fd5b5061022a610731565b60405161023791906116b7565b60405180910390f35b34801561024c57600080fd5b50610267600480360381019061026291906116d2565b61075b565b60405161027491906116b7565b60405180910390f35b34801561028957600080fd5b506102a4600480360381019061029f9190611450565b61078a565b6040516102b1919061134a565b60405180910390f35b3480156102c657600080fd5b506102cf6107f4565b6040516102dc91906113d7565b60405180910390f35b3480156102f157600080fd5b5061030c6004803603810190610307919061139b565b6107fb565b6040516103199190611721565b60405180910390f35b34801561032e57600080fd5b5061033761081f565b60405161034491906113d7565b60405180910390f35b34801561035957600080fd5b50610374600480360381019061036f9190611450565b610843565b005b34801561038257600080fd5b5061039d6004803603810190610398919061173c565b610864565b005b60007f5a05180f000000000000000000000000000000000000000000000000000000007bffffffffffffffffffffffffffffffffffffffffffffffffffffffff1916827bffffffffffffffffffffffffffffffffffffffffffffffffffffffff1916148061041257506104118261095c565b5b9050919050565b6000806000838152602001908152602001600020600101549050919050565b61044182610419565b61044a816109d6565b61045483836109ea565b505050565b610461610a1e565b73ffffffffffffffffffffffffffffffffffffffff168173ffffffffffffffffffffffffffffffffffffffff16146104ce576040517f08c379a00000000000000000000000000000000000000000000000000000000081526004016104c5906117ec565b60405180910390fd5b6104d88282610a26565b5050565b6104e4610a1e565b73ffffffffffffffffffffffffffffffffffffffff16610502610731565b73ffffffffffffffffffffffffffffffffffffffff1614610558576040517f08c379a000000000000000000000000000000000000000000000000000000000815260040161054f90611858565b60405180910390fd5b6105626000610a5a565b565b6702c68af0bb1400003410156105af576040517f08c379a00000000000000000000000000000000000000000000000000000000081526004016105a6906118c4565b60405180910390fd5b600460009054906101000a900473ffffffffffffffffffffffffffffffffffffffff1673ffffffffffffffffffffffffffffffffffffffff1663d204c45e30836040518363ffffffff1660e01b815260040161060c92919061195b565b600060405180830381600087803b15801561062657600080fd5b505af115801561063a573d6000803e3d6000fd5b5050505050565b610649610a1e565b73ffffffffffffffffffffffffffffffffffffffff16610667610731565b73ffffffffffffffffffffffffffffffffffffffff16146106bd576040517f08c379a00000000000000000000000000000000000000000000000000000000081526004016106b490611858565b60405180910390fd5b8273ffffffffffffffffffffffffffffffffffffffff166323b872dd3083856040518463ffffffff1660e01b81526004016106fa9392919061198b565b600060405180830381600087803b15801561071457600080fd5b505af1158015610728573d6000803e3d6000fd5b50505050505050565b6000600360009054906101000a900473ffffffffffffffffffffffffffffffffffffffff16905090565b60006107828260016000868152602001908152602001600020610b2090919063ffffffff16565b905092915050565b600080600084815260200190815260200160002060000160008373ffffffffffffffffffffffffffffffffffffffff1673ffffffffffffffffffffffffffffffffffffffff16815260200190815260200160002060009054906101000a900460ff16905092915050565b6000801b81565b600061081860016000848152602001908152602001600020610b3a565b9050919050565b7f9f2df0fed2c77648de5860a4cc508cd0818c85b8b8a1ab4ceeef8d981c8956a681565b61084c82610419565b610855816109d6565b61085f8383610a26565b505050565b61086c610a1e565b73ffffffffffffffffffffffffffffffffffffffff1661088a610731565b73ffffffffffffffffffffffffffffffffffffffff16146108e0576040517f08c379a00000000000000000000000000000000000000000000000000000000081526004016108d790611858565b60405180910390fd5b600073ffffffffffffffffffffffffffffffffffffffff168173ffffffffffffffffffffffffffffffffffffffff161415610950576040517f08c379a000000000000000000000000000000000000000000000000000000000815260040161094790611a34565b60405180910390fd5b61095981610a5a565b50565b60007f7965db0b000000000000000000000000000000000000000000000000000000007bffffffffffffffffffffffffffffffffffffffffffffffffffffffff1916827bffffffffffffffffffffffffffffffffffffffffffffffffffffffff191614806109cf57506109ce82610b4f565b5b9050919050565b6109e7816109e2610a1e565b610bb9565b50565b6109f48282610c56565b610a198160016000858152602001908152602001600020610d3690919063ffffffff16565b505050565b600033905090565b610a308282610d66565b610a558160016000858152602001908152602001600020610e4790919063ffffffff16565b505050565b6000600360009054906101000a900473ffffffffffffffffffffffffffffffffffffffff16905081600360006101000a81548173ffffffffffffffffffffffffffffffffffffffff021916908373ffffffffffffffffffffffffffffffffffffffff1602179055508173ffffffffffffffffffffffffffffffffffffffff168173ffffffffffffffffffffffffffffffffffffffff167f8be0079c531659141344cd1fd0a4f28419497f9722a3daafe3b4186f6b6457e060405160405180910390a35050565b6000610b2f8360000183610e77565b60001c905092915050565b6000610b4882600001610ea2565b9050919050565b60007f01ffc9a7000000000000000000000000000000000000000000000000000000007bffffffffffffffffffffffffffffffffffffffffffffffffffffffff1916827bffffffffffffffffffffffffffffffffffffffffffffffffffffffff1916149050919050565b610bc3828261078a565b610c5257610be88173ffffffffffffffffffffffffffffffffffffffff166014610eb3565b610bf68360001c6020610eb3565b604051602001610c07929190611b28565b6040516020818303038152906040526040517f08c379a0000000000000000000000000000000000000000000000000000000008152600401610c499190611b62565b60405180910390fd5b5050565b610c60828261078a565b610d3257600160008084815260200190815260200160002060000160008373ffffffffffffffffffffffffffffffffffffffff1673ffffffffffffffffffffffffffffffffffffffff16815260200190815260200160002060006101000a81548160ff021916908315150217905550610cd7610a1e565b73ffffffffffffffffffffffffffffffffffffffff168173ffffffffffffffffffffffffffffffffffffffff16837f2f8788117e7eff1d82e926ec794901d17c78024a50270940304540a733656f0d60405160405180910390a45b5050565b6000610d5e836000018373ffffffffffffffffffffffffffffffffffffffff1660001b6110ef565b905092915050565b610d70828261078a565b15610e4357600080600084815260200190815260200160002060000160008373ffffffffffffffffffffffffffffffffffffffff1673ffffffffffffffffffffffffffffffffffffffff16815260200190815260200160002060006101000a81548160ff021916908315150217905550610de8610a1e565b73ffffffffffffffffffffffffffffffffffffffff168173ffffffffffffffffffffffffffffffffffffffff16837ff6391f5c32d9c69d2a47ea670b442974b53935d1edc7fd64eb21e047a839171b60405160405180910390a45b5050565b6000610e6f836000018373ffffffffffffffffffffffffffffffffffffffff1660001b61115f565b905092915050565b6000826000018281548110610e8f57610e8e611b84565b5b9060005260206000200154905092915050565b600081600001805490509050919050565b606060006002836002610ec69190611be2565b610ed09190611c3c565b67ffffffffffffffff811115610ee957610ee86114ab565b5b6040519080825280601f01601f191660200182016040528015610f1b5781602001600182028036833780820191505090505b5090507f300000000000000000000000000000000000000000000000000000000000000081600081518110610f5357610f52611b84565b5b60200101907effffffffffffffffffffffffffffffffffffffffffffffffffffffffffffff1916908160001a9053507f780000000000000000000000000000000000000000000000000000000000000081600181518110610fb757610fb6611b84565b5b60200101907effffffffffffffffffffffffffffffffffffffffffffffffffffffffffffff1916908160001a90535060006001846002610ff79190611be2565b6110019190611c3c565b90505b60018111156110a1577f3031323334353637383961626364656600000000000000000000000000000000600f86166010811061104357611042611b84565b5b1a60f81b82828151811061105a57611059611b84565b5b60200101907effffffffffffffffffffffffffffffffffffffffffffffffffffffffffffff1916908160001a905350600485901c94508061109a90611c92565b9050611004565b50600084146110e5576040517f08c379a00000000000000000000000000000000000000000000000000000000081526004016110dc90611d08565b60405180910390fd5b8091505092915050565b60006110fb8383611273565b611154578260000182908060018154018082558091505060019003906000526020600020016000909190919091505582600001805490508360010160008481526020019081526020016000208190555060019050611159565b600090505b92915050565b600080836001016000848152602001908152602001600020549050600081146112675760006001826111919190611d28565b90506000600186600001805490506111a99190611d28565b90508181146112185760008660000182815481106111ca576111c9611b84565b5b90600052602060002001549050808760000184815481106111ee576111ed611b84565b5b90600052602060002001819055508387600101600083815260200190815260200160002081905550505b8560000180548061122c5761122b611d5c565b5b60019003818190600052602060002001600090559055856001016000868152602001908152602001600020600090556001935050505061126d565b60009150505b92915050565b600080836001016000848152602001908152602001600020541415905092915050565b6000604051905090565b600080fd5b600080fd5b60007fffffffff0000000000000000000000000000000000000000000000000000000082169050919050565b6112df816112aa565b81146112ea57600080fd5b50565b6000813590506112fc816112d6565b92915050565b600060208284031215611318576113176112a0565b5b6000611326848285016112ed565b91505092915050565b60008115159050919050565b6113448161132f565b82525050565b600060208201905061135f600083018461133b565b92915050565b6000819050919050565b61137881611365565b811461138357600080fd5b50565b6000813590506113958161136f565b92915050565b6000602082840312156113b1576113b06112a0565b5b60006113bf84828501611386565b91505092915050565b6113d181611365565b82525050565b60006020820190506113ec60008301846113c8565b92915050565b600073ffffffffffffffffffffffffffffffffffffffff82169050919050565b600061141d826113f2565b9050919050565b61142d81611412565b811461143857600080fd5b50565b60008135905061144a81611424565b92915050565b60008060408385031215611467576114666112a0565b5b600061147585828601611386565b92505060206114868582860161143b565b9150509250929050565b600080fd5b600080fd5b6000601f19601f8301169050919050565b7f4e487b7100000000000000000000000000000000000000000000000000000000600052604160045260246000fd5b6114e38261149a565b810181811067ffffffffffffffff82111715611502576115016114ab565b5b80604052505050565b6000611515611296565b905061152182826114da565b919050565b600067ffffffffffffffff821115611541576115406114ab565b5b61154a8261149a565b9050602081019050919050565b82818337600083830152505050565b600061157961157484611526565b61150b565b90508281526020810184848401111561159557611594611495565b5b6115a0848285611557565b509392505050565b600082601f8301126115bd576115bc611490565b5b81356115cd848260208601611566565b91505092915050565b6000602082840312156115ec576115eb6112a0565b5b600082013567ffffffffffffffff81111561160a576116096112a5565b5b611616848285016115a8565b91505092915050565b6000819050919050565b6116328161161f565b811461163d57600080fd5b50565b60008135905061164f81611629565b92915050565b60008060006060848603121561166e5761166d6112a0565b5b600061167c8682870161143b565b935050602061168d86828701611640565b925050604061169e8682870161143b565b9150509250925092565b6116b181611412565b82525050565b60006020820190506116cc60008301846116a8565b92915050565b600080604083850312156116e9576116e86112a0565b5b60006116f785828601611386565b925050602061170885828601611640565b9150509250929050565b61171b8161161f565b82525050565b60006020820190506117366000830184611712565b92915050565b600060208284031215611752576117516112a0565b5b60006117608482850161143b565b91505092915050565b600082825260208201905092915050565b7f416363657373436f6e74726f6c3a2063616e206f6e6c792072656e6f756e636560008201527f20726f6c657320666f722073656c660000000000000000000000000000000000602082015250565b60006117d6602f83611769565b91506117e18261177a565b604082019050919050565b60006020820190508181036000830152611805816117c9565b9050919050565b7f4f776e61626c653a2063616c6c6572206973206e6f7420746865206f776e6572600082015250565b6000611842602083611769565b915061184d8261180c565b602082019050919050565b6000602082019050818103600083015261187181611835565b9050919050565b7f696e73756666696369656e742066756e64730000000000000000000000000000600082015250565b60006118ae601283611769565b91506118b982611878565b602082019050919050565b600060208201905081810360008301526118dd816118a1565b9050919050565b600081519050919050565b60005b8381101561190d5780820151818401526020810190506118f2565b8381111561191c576000848401525b50505050565b600061192d826118e4565b6119378185611769565b93506119478185602086016118ef565b6119508161149a565b840191505092915050565b600060408201905061197060008301856116a8565b81810360208301526119828184611922565b90509392505050565b60006060820190506119a060008301866116a8565b6119ad60208301856116a8565b6119ba6040830184611712565b949350505050565b7f4f776e61626c653a206e6577206f776e657220697320746865207a65726f206160008201527f6464726573730000000000000000000000000000000000000000000000000000602082015250565b6000611a1e602683611769565b9150611a29826119c2565b604082019050919050565b60006020820190508181036000830152611a4d81611a11565b9050919050565b600081905092915050565b7f416363657373436f6e74726f6c3a206163636f756e7420000000000000000000600082015250565b6000611a95601783611a54565b9150611aa082611a5f565b601782019050919050565b6000611ab6826118e4565b611ac08185611a54565b9350611ad08185602086016118ef565b80840191505092915050565b7f206973206d697373696e6720726f6c6520000000000000000000000000000000600082015250565b6000611b12601183611a54565b9150611b1d82611adc565b601182019050919050565b6000611b3382611a88565b9150611b3f8285611aab565b9150611b4a82611b05565b9150611b568284611aab565b91508190509392505050565b60006020820190508181036000830152611b7c8184611922565b905092915050565b7f4e487b7100000000000000000000000000000000000000000000000000000000600052603260045260246000fd5b7f4e487b7100000000000000000000000000000000000000000000000000000000600052601160045260246000fd5b6000611bed8261161f565b9150611bf88361161f565b9250817fffffffffffffffffffffffffffffffffffffffffffffffffffffffffffffffff0483118215151615611c3157611c30611bb3565b5b828202905092915050565b6000611c478261161f565b9150611c528361161f565b9250827fffffffffffffffffffffffffffffffffffffffffffffffffffffffffffffffff03821115611c8757611c86611bb3565b5b828201905092915050565b6000611c9d8261161f565b91506000821415611cb157611cb0611bb3565b5b600182039050919050565b7f537472696e67733a20686578206c656e67746820696e73756666696369656e74600082015250565b6000611cf2602083611769565b9150611cfd82611cbc565b602082019050919050565b60006020820190508181036000830152611d2181611ce5565b9050919050565b6000611d338261161f565b9150611d3e8361161f565b925082821015611d5157611d50611bb3565b5b828203905092915050565b7f4e487b7100000000000000000000000000000000000000000000000000000000600052603160045260246000fdfea2646970667358221220e14797a91532a21a25fe4cc09bb7bc285e6d377135ef65e85b2f38943084377364736f6c634300080a0033",
  "immutableReferences": {},
  "source": "// SPDX-License-Identifier: MIT\npragma solidity ^0.8.4;\n\nimport \"./MetaverseNFT721.sol\";\nimport \"@openzeppelin/contracts/access/AccessControlEnumerable.sol\";\nimport \"@openzeppelin/contracts/token/ERC20/IERC20.sol\";\nimport \"@openzeppelin/contracts/token/ERC721/IERC721.sol\";\nimport \"@openzeppelin/contracts/access/Ownable.sol\";\nimport \"@openzeppelin/contracts/security/ReentrancyGuard.sol\";\n\ncontract Metaverse721Wallet is AccessControlEnumerable, EIP712, ReentrancyGuard, Ownable {\n\n  bytes32 public constant MINTER_ROLE = keccak256(\"MINTER_ROLE\");\n  string private constant SIGNING_DOMAIN = \"Metaverse721Wallet\";\n  string private constant SIGNATURE_VERSION = \"4\";\n\n  MetaverseNFT721 NFTAddress;\n\n  constructor(address _metaverseNFT721) EIP712(SIGNING_DOMAIN, SIGNATURE_VERSION) {\n    NFTAddress = MetaverseNFT721(_metaverseNFT721);\n  }\n\n  function vendingMachine(string memory myUri) payable public {\n    require(msg.value >= 0.2 ether, \"insufficient funds\");\n\n    NFTAddress.safeMint(address(this), myUri);\n  }\n\n\n  function transferTo(address tokenAddress, uint256 tokenId, address to) public onlyOwner {\n    IERC721(tokenAddress).transferFrom(address(this), to, tokenId);\n  }\n}",
  "sourcePath": "/home/consensys/Documents/GitHub/hackathon-metaverse-smartcontracts/contracts/Metaverse721Wallet.sol",
  "compiler": {
    "name": "solc",
    "version": "0.8.10+commit.fc410830.Emscripten.clang"
  },
  "schemaVersion": "3.4.3",
  "updatedAt": "2022-05-14T23:03:33.424Z",
  "networkType": "ethereum",
  "devdoc": {
    "kind": "dev",
    "methods": {
      "getRoleAdmin(bytes32)": {
        "details": "Returns the admin role that controls `role`. See {grantRole} and {revokeRole}. To change a role's admin, use {_setRoleAdmin}."
      },
      "getRoleMember(bytes32,uint256)": {
        "details": "Returns one of the accounts that have `role`. `index` must be a value between 0 and {getRoleMemberCount}, non-inclusive. Role bearers are not sorted in any particular way, and their ordering may change at any point. WARNING: When using {getRoleMember} and {getRoleMemberCount}, make sure you perform all queries on the same block. See the following https://forum.openzeppelin.com/t/iterating-over-elements-on-enumerableset-in-openzeppelin-contracts/2296[forum post] for more information."
      },
      "getRoleMemberCount(bytes32)": {
        "details": "Returns the number of accounts that have `role`. Can be used together with {getRoleMember} to enumerate all bearers of a role."
      },
      "grantRole(bytes32,address)": {
        "details": "Grants `role` to `account`. If `account` had not been already granted `role`, emits a {RoleGranted} event. Requirements: - the caller must have ``role``'s admin role."
      },
      "hasRole(bytes32,address)": {
        "details": "Returns `true` if `account` has been granted `role`."
      },
      "owner()": {
        "details": "Returns the address of the current owner."
      },
      "renounceOwnership()": {
        "details": "Leaves the contract without owner. It will not be possible to call `onlyOwner` functions anymore. Can only be called by the current owner. NOTE: Renouncing ownership will leave the contract without an owner, thereby removing any functionality that is only available to the owner."
      },
      "renounceRole(bytes32,address)": {
        "details": "Revokes `role` from the calling account. Roles are often managed via {grantRole} and {revokeRole}: this function's purpose is to provide a mechanism for accounts to lose their privileges if they are compromised (such as when a trusted device is misplaced). If the calling account had been revoked `role`, emits a {RoleRevoked} event. Requirements: - the caller must be `account`."
      },
      "revokeRole(bytes32,address)": {
        "details": "Revokes `role` from `account`. If `account` had been granted `role`, emits a {RoleRevoked} event. Requirements: - the caller must have ``role``'s admin role."
      },
      "supportsInterface(bytes4)": {
        "details": "See {IERC165-supportsInterface}."
      },
      "transferOwnership(address)": {
        "details": "Transfers ownership of the contract to a new account (`newOwner`). Can only be called by the current owner."
      }
    },
    "version": 1
  },
  "userdoc": {
    "kind": "user",
    "methods": {},
    "version": 1
  }
}