{
  "contractName": "MetaverseVendingMachine",
  "abi": [
    {
      "inputs": [
        {
          "internalType": "address",
          "name": "_metaverseNFT721",
          "type": "address"
        }
      ],
      "stateMutability": "nonpayable",
      "type": "constructor"
    },
    {
      "anonymous": false,
      "inputs": [
        {
          "indexed": false,
          "internalType": "uint256",
          "name": "amount",
          "type": "uint256"
        },
        {
          "indexed": false,
          "internalType": "address",
          "name": "smartContractAddress",
          "type": "address"
        },
        {
          "indexed": false,
          "internalType": "uint256",
          "name": "tokenId",
          "type": "uint256"
        }
      ],
      "name": "Purchase",
      "type": "event"
    },
    {
      "anonymous": false,
      "inputs": [
        {
          "indexed": true,
          "internalType": "bytes32",
          "name": "role",
          "type": "bytes32"
        },
        {
          "indexed": true,
          "internalType": "bytes32",
          "name": "previousAdminRole",
          "type": "bytes32"
        },
        {
          "indexed": true,
          "internalType": "bytes32",
          "name": "newAdminRole",
          "type": "bytes32"
        }
      ],
      "name": "RoleAdminChanged",
      "type": "event"
    },
    {
      "anonymous": false,
      "inputs": [
        {
          "indexed": true,
          "internalType": "bytes32",
          "name": "role",
          "type": "bytes32"
        },
        {
          "indexed": true,
          "internalType": "address",
          "name": "account",
          "type": "address"
        },
        {
          "indexed": true,
          "internalType": "address",
          "name": "sender",
          "type": "address"
        }
      ],
      "name": "RoleGranted",
      "type": "event"
    },
    {
      "anonymous": false,
      "inputs": [
        {
          "indexed": true,
          "internalType": "bytes32",
          "name": "role",
          "type": "bytes32"
        },
        {
          "indexed": true,
          "internalType": "address",
          "name": "account",
          "type": "address"
        },
        {
          "indexed": true,
          "internalType": "address",
          "name": "sender",
          "type": "address"
        }
      ],
      "name": "RoleRevoked",
      "type": "event"
    },
    {
      "inputs": [],
      "name": "DEFAULT_ADMIN_ROLE",
      "outputs": [
        {
          "internalType": "bytes32",
          "name": "",
          "type": "bytes32"
        }
      ],
      "stateMutability": "view",
      "type": "function",
      "constant": true
    },
    {
      "inputs": [
        {
          "internalType": "bytes32",
          "name": "role",
          "type": "bytes32"
        }
      ],
      "name": "getRoleAdmin",
      "outputs": [
        {
          "internalType": "bytes32",
          "name": "",
          "type": "bytes32"
        }
      ],
      "stateMutability": "view",
      "type": "function",
      "constant": true
    },
    {
      "inputs": [
        {
          "internalType": "bytes32",
          "name": "role",
          "type": "bytes32"
        },
        {
          "internalType": "uint256",
          "name": "index",
          "type": "uint256"
        }
      ],
      "name": "getRoleMember",
      "outputs": [
        {
          "internalType": "address",
          "name": "",
          "type": "address"
        }
      ],
      "stateMutability": "view",
      "type": "function",
      "constant": true
    },
    {
      "inputs": [
        {
          "internalType": "bytes32",
          "name": "role",
          "type": "bytes32"
        }
      ],
      "name": "getRoleMemberCount",
      "outputs": [
        {
          "internalType": "uint256",
          "name": "",
          "type": "uint256"
        }
      ],
      "stateMutability": "view",
      "type": "function",
      "constant": true
    },
    {
      "inputs": [
        {
          "internalType": "bytes32",
          "name": "role",
          "type": "bytes32"
        },
        {
          "internalType": "address",
          "name": "account",
          "type": "address"
        }
      ],
      "name": "grantRole",
      "outputs": [],
      "stateMutability": "nonpayable",
      "type": "function"
    },
    {
      "inputs": [
        {
          "internalType": "bytes32",
          "name": "role",
          "type": "bytes32"
        },
        {
          "internalType": "address",
          "name": "account",
          "type": "address"
        }
      ],
      "name": "hasRole",
      "outputs": [
        {
          "internalType": "bool",
          "name": "",
          "type": "bool"
        }
      ],
      "stateMutability": "view",
      "type": "function",
      "constant": true
    },
    {
      "inputs": [
        {
          "internalType": "bytes32",
          "name": "role",
          "type": "bytes32"
        },
        {
          "internalType": "address",
          "name": "account",
          "type": "address"
        }
      ],
      "name": "renounceRole",
      "outputs": [],
      "stateMutability": "nonpayable",
      "type": "function"
    },
    {
      "inputs": [
        {
          "internalType": "bytes32",
          "name": "role",
          "type": "bytes32"
        },
        {
          "internalType": "address",
          "name": "account",
          "type": "address"
        }
      ],
      "name": "revokeRole",
      "outputs": [],
      "stateMutability": "nonpayable",
      "type": "function"
    },
    {
      "inputs": [
        {
          "internalType": "bytes4",
          "name": "interfaceId",
          "type": "bytes4"
        }
      ],
      "name": "supportsInterface",
      "outputs": [
        {
          "internalType": "bool",
          "name": "",
          "type": "bool"
        }
      ],
      "stateMutability": "view",
      "type": "function",
      "constant": true
    },
    {
      "inputs": [
        {
          "internalType": "address",
          "name": "to",
          "type": "address"
        },
        {
          "internalType": "string",
          "name": "myUri",
          "type": "string"
        }
      ],
      "name": "mintNewNFT",
      "outputs": [],
      "stateMutability": "payable",
      "type": "function",
      "payable": true
    },
    {
      "inputs": [
        {
          "internalType": "address",
          "name": "smartContractAddress",
          "type": "address"
        },
        {
          "internalType": "uint256",
          "name": "tokenId",
          "type": "uint256"
        }
      ],
      "name": "purchaseNFTFromMachine",
      "outputs": [],
      "stateMutability": "payable",
      "type": "function",
      "payable": true
    },
    {
      "inputs": [
        {
          "internalType": "address",
          "name": "tokenAddress",
          "type": "address"
        },
        {
          "internalType": "uint256",
          "name": "tokenId",
          "type": "uint256"
        },
        {
          "internalType": "address",
          "name": "to",
          "type": "address"
        }
      ],
      "name": "forceTransferTo",
      "outputs": [],
      "stateMutability": "nonpayable",
      "type": "function"
    },
    {
      "inputs": [
        {
          "internalType": "address payable",
          "name": "to",
          "type": "address"
        }
      ],
      "name": "withdraw",
      "outputs": [],
      "stateMutability": "nonpayable",
      "type": "function"
    }
  ],
  "bytecode": "0x60806040523480156200001157600080fd5b50604051620015733803806200157383398101604081905262000034916200021b565b600160025560038054600160a060020a031916600160a060020a0383161790556200006a60003364010000000062000071810204565b506200024b565b6200008b828264010000000062000892620000b882021704565b6000828152600160205260409020620000b39082640100000000620009166200015582021704565b505050565b620000cd82826401000000006200017e810204565b6200015157600082815260208181526040808320600160a060020a03851684529091529020805460ff1916600117905562000110640100000000620001a7810204565b600160a060020a031681600160a060020a0316837f2f8788117e7eff1d82e926ec794901d17c78024a50270940304540a733656f0d60405160405180910390a45b5050565b60006200017583600160a060020a038416640100000000620001ab810204565b90505b92915050565b600091825260208281526040808420600160a060020a0393909316845291905290205460ff1690565b3390565b6000620001c2838364010000000062000203810204565b620001fa5750815460018181018455600084815260208082209093018490558454848252828601909352604090209190915562000178565b50600062000178565b60009081526001919091016020526040902054151590565b6000602082840312156200022d578081fd5b8151600160a060020a038116811462000244578182fd5b9392505050565b611318806200025b6000396000f3fe6080604052600436106100df576000357c01000000000000000000000000000000000000000000000000000000009004806351cff8d91161009c578063a217fddf11610076578063a217fddf14610244578063ca15c87314610259578063cc86052214610279578063d547741f1461028c57600080fd5b806351cff8d9146101cc5780639010d07c146101ec57806391d148541461022457600080fd5b806301ffc9a7146100e45780630afbb51114610119578063238fb2bc1461012e578063248a9ca31461014e5780632f2ff15d1461018c57806336568abe146101ac575b600080fd5b3480156100f057600080fd5b506101046100ff3660046110f4565b6102ac565b60405190151581526020015b60405180910390f35b61012c610127366004610f61565b6102f0565b005b34801561013a57600080fd5b5061012c61014936600461104b565b61042f565b34801561015a57600080fd5b5061017e61016936600461108c565b60009081526020819052604090206001015490565b604051908152602001610110565b34801561019857600080fd5b5061012c6101a73660046110a4565b6104c1565b3480156101b857600080fd5b5061012c6101c73660046110a4565b6104eb565b3480156101d857600080fd5b5061012c6101e7366004610f45565b61057a565b3480156101f857600080fd5b5061020c6102073660046110d3565b6105bb565b604051600160a060020a039091168152602001610110565b34801561023057600080fd5b5061010461023f3660046110a4565b6105da565b34801561025057600080fd5b5061017e600081565b34801561026557600080fd5b5061017e61027436600461108c565b610603565b61012c610287366004611020565b61061a565b34801561029857600080fd5b5061012c6102a73660046110a4565b61086d565b6000600160e060020a031982167f5a05180f0000000000000000000000000000000000000000000000000000000014806102ea57506102ea8261092b565b92915050565b60028054141561034a5760405160e560020a62461bcd02815260206004820152601f60248201527f5265656e7472616e637947756172643a207265656e7472616e742063616c6c0060448201526064015b60405180910390fd5b600280556702c68af0bb1400003410156103a95760405160e560020a62461bcd02815260206004820152601260248201527f696e73756666696369656e742066756e647300000000000000000000000000006044820152606401610341565b6003546040517fd204c45e000000000000000000000000000000000000000000000000000000008152600160a060020a039091169063d204c45e906103f490859085906004016111c9565b600060405180830381600087803b15801561040e57600080fd5b505af1158015610422573d6000803e3d6000fd5b5050600160025550505050565b600061043a81610992565b6040517f23b872dd000000000000000000000000000000000000000000000000000000008152306004820152600160a060020a038381166024830152604482018590528516906323b872dd90606401600060405180830381600087803b1580156104a357600080fd5b505af11580156104b7573d6000803e3d6000fd5b5050505050505050565b6000828152602081905260409020600101546104dc81610992565b6104e6838361099f565b505050565b600160a060020a038116331461056c5760405160e560020a62461bcd02815260206004820152602f60248201527f416363657373436f6e74726f6c3a2063616e206f6e6c792072656e6f756e636560448201527f20726f6c657320666f722073656c6600000000000000000000000000000000006064820152608401610341565b61057682826109c1565b5050565b600061058581610992565b604051600160a060020a03831690303180156108fc02916000818181858888f193505050501580156104e6573d6000803e3d6000fd5b60008281526001602052604081206105d390836109e3565b9392505050565b600091825260208281526040808420600160a060020a0393909316845291905290205460ff1690565b60008181526001602052604081206102ea906109ef565b60028054141561066f5760405160e560020a62461bcd02815260206004820152601f60248201527f5265656e7472616e637947756172643a207265656e7472616e742063616c6c006044820152606401610341565b600280556702c68af0bb14000034101561068857600080fd5b6040517f23b872dd00000000000000000000000000000000000000000000000000000000815230600482015273ab3cbe5e57e0b2035831dca8e0ce8f10f2efa05d602482015260448101829052600160a060020a038316906323b872dd90606401600060405180830381600087803b15801561070357600080fd5b505af1158015610717573d6000803e3d6000fd5b50506040517f6352211e0000000000000000000000000000000000000000000000000000000081526004810184905273ab3cbe5e57e0b2035831dca8e0ce8f10f2efa05d9250600160a060020a0385169150636352211e9060240160206040518083038186803b15801561078a57600080fd5b505afa15801561079e573d6000803e3d6000fd5b505050506040513d601f19601f820116820180604052508101906107c29190610f29565b600160a060020a03161461081b5760405160e560020a62461bcd02815260206004820152601360248201527f4e4654205472616e73666572206661696c6564000000000000000000000000006044820152606401610341565b60408051348152600160a060020a03841660208201529081018290527f9b9322562a425e363b0c2f80fc966e9c4f48ac3b5c2d1527d75829c8f505ec969060600160405180910390a150506001600255565b60008281526020819052604090206001015461088881610992565b6104e683836109c1565b61089c82826105da565b61057657600082815260208181526040808320600160a060020a03851684529091529020805460ff191660011790556108d23390565b600160a060020a031681600160a060020a0316837f2f8788117e7eff1d82e926ec794901d17c78024a50270940304540a733656f0d60405160405180910390a45050565b60006105d383600160a060020a0384166109f9565b6000600160e060020a031982167f7965db0b0000000000000000000000000000000000000000000000000000000014806102ea57507f01ffc9a700000000000000000000000000000000000000000000000000000000600160e060020a03198316146102ea565b61099c8133610a48565b50565b6109a98282610892565b60008281526001602052604090206104e69082610916565b6109cb8282610aaf565b60008281526001602052604090206104e69082610b14565b60006105d38383610b29565b60006102ea825490565b6000818152600183016020526040812054610a40575081546001818101845560008481526020808220909301849055845484825282860190935260409020919091556102ea565b5060006102ea565b610a5282826105da565b61057657610a6a81600160a060020a03166014610b64565b610a75836020610b64565b604051602001610a86929190611148565b60408051601f198184030181529082905260e560020a62461bcd028252610341916004016111f3565b610ab982826105da565b1561057657600082815260208181526040808320600160a060020a0385168085529252808320805460ff1916905551339285917ff6391f5c32d9c69d2a47ea670b442974b53935d1edc7fd64eb21e047a839171b9190a45050565b60006105d383600160a060020a038416610e03565b6000826000018281548110610b515760e060020a634e487b7102600052603260045260246000fd5b9060005260206000200154905092915050565b60606000610b7383600261121e565b610b7e906002611206565b67ffffffffffffffff811115610ba75760e060020a634e487b7102600052604160045260246000fd5b6040519080825280601f01601f191660200182016040528015610bd1576020820181803683370190505b5090507f300000000000000000000000000000000000000000000000000000000000000081600081518110610c195760e060020a634e487b7102600052603260045260246000fd5b60200101907effffffffffffffffffffffffffffffffffffffffffffffffffffffffffffff1916908160001a9053507f780000000000000000000000000000000000000000000000000000000000000081600181518110610c8d5760e060020a634e487b7102600052603260045260246000fd5b60200101907effffffffffffffffffffffffffffffffffffffffffffffffffffffffffffff1916908160001a9053506000610cc984600261121e565b610cd4906001611206565b90505b6001811115610db1577f303132333435363738396162636465660000000000000000000000000000000085600f1660108110610d265760e060020a634e487b7102600052603260045260246000fd5b1a7f010000000000000000000000000000000000000000000000000000000000000002828281518110610d6c5760e060020a634e487b7102600052603260045260246000fd5b60200101907effffffffffffffffffffffffffffffffffffffffffffffffffffffffffffff1916908160001a905350601090940493610daa81611284565b9050610cd7565b5083156105d35760405160e560020a62461bcd02815260206004820181905260248201527f537472696e67733a20686578206c656e67746820696e73756666696369656e746044820152606401610341565b60008181526001830160205260408120548015610f1f576000610e2760018361123d565b8554909150600090610e3b9060019061123d565b9050818114610ec2576000866000018281548110610e6c5760e060020a634e487b7102600052603260045260246000fd5b9060005260206000200154905080876000018481548110610ea05760e060020a634e487b7102600052603260045260246000fd5b6000918252602080832090910192909255918252600188019052604090208390555b8554869080610ee45760e060020a634e487b7102600052603160045260246000fd5b6001900381819060005260206000200160009055905585600101600086815260200190815260200160002060009055600193505050506102ea565b60009150506102ea565b600060208284031215610f3a578081fd5b81516105d3816112cd565b600060208284031215610f56578081fd5b81356105d3816112cd565b60008060408385031215610f73578081fd5b8235610f7e816112cd565b9150602083013567ffffffffffffffff80821115610f9a578283fd5b818501915085601f830112610fad578283fd5b813581811115610fbf57610fbf6112b4565b604051601f8201601f19908116603f01168101908382118183101715610fe757610fe76112b4565b81604052828152886020848701011115610fff578586fd5b82602086016020830137856020848301015280955050505050509250929050565b60008060408385031215611032578182fd5b823561103d816112cd565b946020939093013593505050565b60008060006060848603121561105f578081fd5b833561106a816112cd565b9250602084013591506040840135611081816112cd565b809150509250925092565b60006020828403121561109d578081fd5b5035919050565b600080604083850312156110b6578182fd5b8235915060208301356110c8816112cd565b809150509250929050565b600080604083850312156110e5578182fd5b50508035926020909101359150565b600060208284031215611105578081fd5b8135600160e060020a0319811681146105d3578182fd5b60008151808452611134816020860160208601611254565b601f01601f19169290920160200192915050565b7f416363657373436f6e74726f6c3a206163636f756e7420000000000000000000815260008351611180816017850160208801611254565b7f206973206d697373696e6720726f6c652000000000000000000000000000000060179184019182015283516111bd816028840160208801611254565b01602801949350505050565b600160a060020a03831681526040602082015260006111eb604083018461111c565b949350505050565b6020815260006105d3602083018461111c565b600082198211156112195761121961129b565b500190565b60008160001904831182151516156112385761123861129b565b500290565b60008282101561124f5761124f61129b565b500390565b60005b8381101561126f578181015183820152602001611257565b8381111561127e576000848401525b50505050565b6000816112935761129361129b565b506000190190565b60e060020a634e487b7102600052601160045260246000fd5b60e060020a634e487b7102600052604160045260246000fd5b600160a060020a038116811461099c57600080fdfea26469706673582212207bc67a3aa196e3eb3096332022a7dbebbe6aaed2a18c62e600b6afc2bb9d988a64736f6c63430008040033",
  "immutableReferences": {},
  "source": "// SPDX-License-Identifier: MIT\npragma solidity ^0.8.4;\n\nimport \"./MetaverseNFT721.sol\";\nimport \"@openzeppelin/contracts/access/AccessControlEnumerable.sol\";\nimport \"@openzeppelin/contracts/token/ERC20/IERC20.sol\";\nimport \"@openzeppelin/contracts/token/ERC721/IERC721.sol\";\nimport \"@openzeppelin/contracts/security/ReentrancyGuard.sol\";\n// import \"@openzeppelin/contracts/utils/cryptography/ECDSA.sol\";\n// import \"@openzeppelin/contracts/utils/cryptography/draft-EIP712.sol\";\n\n// contract MetaverseVendingMachine is AccessControlEnumerable, ReentrancyGuard, EIP712 {\ncontract MetaverseVendingMachine is AccessControlEnumerable, ReentrancyGuard {\n\n  address constant metaverseEOAAddress = 0xAb3cbE5E57e0B2035831DcA8e0Ce8f10F2eFa05D;\n  // string private constant SIGNING_DOMAIN = \"MetaverseVendingMachine\";\n  // string private constant SIGNATURE_VERSION = \"4\";\n  MetaverseNFT721 NFTAddress;\n\n  event Purchase(uint256 amount, address smartContractAddress, uint256 tokenId);\n\n  // struct MintNFTVoucher {\n  //   uint256 tokenMintLimit;\n  //   uint256 price;\n  //   address currency; // for native Eth payments, use 'address(0)' as input; for ERC20 payments, specify the ERC20's smart-contract address\n  //   address withdrawalAddress;\n  //   string uri;\n  //   bytes signature;\n  // }\n\n  // struct ClaimNFTVoucher {\n  //   uint256 tokenId;\n  //   address tokenAddress;\n  //   address receiver;\n  //   bytes signature;\n  // }\n\n  // would've been useful to limit the NFT minting to ones with approved URIs \n  //(No Frostmourne minting for 0.2 measly ETHs !)\n  // struct VettedURI {\n  //   string uri;\n  //   bytes signature;\n  // }\n\n  // constructor(address _metaverseNFT721) EIP712(SIGNING_DOMAIN, SIGNATURE_VERSION) {\n  constructor(address _metaverseNFT721) {\n    NFTAddress = MetaverseNFT721(_metaverseNFT721);\n    _grantRole(DEFAULT_ADMIN_ROLE, msg.sender);\n  }\n\n  // Users can query this function to mint items without actual minting rights;\n  // instead they pay a small fee and the NFT will appear in the target address\n\n  //function mintNewNFT(address to, VettedURI calldata myUri) payable public {\n  function mintNewNFT(address to, string memory myUri) payable public nonReentrant() {\n    // require(_verify(myUri) == metaverseEOAAddress);\n\n    require(msg.value >= 0.2 ether, \"insufficient funds\");\n    NFTAddress.safeMint(to, myUri);\n\n    //NFTAddress.safeMint(to, myUri.uri);\n  }\n\n  // Users calls this function to signal the Metaverse that they've made a purchase of an item held by this smart contract\n  // The item they purchased will drop on the floor shortly after (requires a bit of trust)\n  // If the item is not owned by the metaverse's EOA, then the transaction will revert\n  function purchaseNFTFromMachine(address smartContractAddress, uint256 tokenId) payable external nonReentrant() {\n    require(msg.value >= 0.2 ether);\n\n    IERC721(smartContractAddress).transferFrom(address(this), metaverseEOAAddress, tokenId);\n    // making sure it clears up\n    require(IERC721(smartContractAddress).ownerOf(tokenId) == metaverseEOAAddress, \"NFT Transfer failed\");\n    \n    emit Purchase(msg.value, smartContractAddress, tokenId);\n  }\n\n\n  // Emergency feature for items blocked here\n  function forceTransferTo(address tokenAddress, uint256 tokenId, address to) public onlyRole(DEFAULT_ADMIN_ROLE) {\n    IERC721(tokenAddress).transferFrom(address(this), to, tokenId);\n  }\n\n  function withdraw(address payable to) public onlyRole(DEFAULT_ADMIN_ROLE) {\n    to.transfer(address(this).balance);\n  }\n\n  // Discontinued : on-chain logic for signature verification\n  // helps in creating signature-based access control / data sanitizing from trusted parties\n\n  // /** \n  //  * @notice Returns a hash of the given NFTVoucher, prepared using EIP712 typed data hashing rules.\n  //  * @dev This function is used by 'verify()' in order to retrieve the address of the voucher's signer.\n  //  * @param voucher An NFTVoucher to hash.\n  //  * @return hash the hash of the NFTVoucher in bytes32 format.\n  //  */\n  // function _hash(MintNFTVoucher calldata voucher) internal view returns (bytes32) {\n  //   return\n  //     _hashTypedDataV4(\n  //       keccak256(\n  //         abi.encode(\n  //           keccak256(\n  //             \"NFTVoucher(uint256 tokenMintLimit,uint256 price,address currency,address withdrawalAddress,string uri)\"\n  //           ),\n  //           voucher.tokenMintLimit,\n  //           keccak256(bytes(voucher.uri)),\n  //           voucher.price,\n  //           voucher.currency,\n  //           voucher.withdrawalAddress\n  //         )\n  //       )\n  //     );\n  // }\n\n  // /**\n  //  * @notice Verifies the signature for a given NFTVoucher, returning the address of the signer. Signature is based on the EIP712 standard.\n  //  * @dev Will revert if the signature is invalid. Does not verify that the signer is authorized to mint NFTs.\n  //  * @param voucher An NFTVoucher describing the auction you're curious about.\n  //  * @return signer the address of the guy who signed that NFT.\n  //  */\n  // function verify(MintNFTVoucher calldata voucher)\n  //   public\n  //   view\n  //   returns (address)\n  // {\n  //   bytes32 digest = _hash(voucher);\n  //   return ECDSA.recover(digest, voucher.signature);\n  // }\n\n  // /**\n  //  * @notice returns the voucher's signer address. Signature is based on the EIP712 standard.\n  //  * @dev similar to 'verify()', which is also a public function doing exactly the same thing.\n  //  * Will revert if the signature is invalid. Does not verify that the signer is authorized to mint NFTs.\n  //  * @param voucher An NFTVoucher describing the auction you're curious about.\n  //  * @return signer the address of the guy who signed that NFT.\n  //  */\n  // function getVoucherSigner(MintNFTVoucher calldata voucher)\n  //   public\n  //   view\n  //   returns (address signer)\n  // {\n  //   signer = verify(voucher);\n  // }\n}",
  "sourcePath": "/home/consensys/Documents/GitHub/hackathon-metaverse-smartcontracts/contracts/MetaverseVendingMachine.sol",
  "compiler": {
    "name": "solc",
    "version": "0.8.4+commit.c7e474f2.Emscripten.clang"
  },
  "schemaVersion": "3.4.3",
  "updatedAt": "2022-05-15T01:41:38.179Z",
  "networkType": "ethereum",
  "devdoc": {
    "kind": "dev",
    "methods": {
      "getRoleAdmin(bytes32)": {
        "details": "Returns the admin role that controls `role`. See {grantRole} and {revokeRole}. To change a role's admin, use {_setRoleAdmin}."
      },
      "getRoleMember(bytes32,uint256)": {
        "details": "Returns one of the accounts that have `role`. `index` must be a value between 0 and {getRoleMemberCount}, non-inclusive. Role bearers are not sorted in any particular way, and their ordering may change at any point. WARNING: When using {getRoleMember} and {getRoleMemberCount}, make sure you perform all queries on the same block. See the following https://forum.openzeppelin.com/t/iterating-over-elements-on-enumerableset-in-openzeppelin-contracts/2296[forum post] for more information."
      },
      "getRoleMemberCount(bytes32)": {
        "details": "Returns the number of accounts that have `role`. Can be used together with {getRoleMember} to enumerate all bearers of a role."
      },
      "grantRole(bytes32,address)": {
        "details": "Grants `role` to `account`. If `account` had not been already granted `role`, emits a {RoleGranted} event. Requirements: - the caller must have ``role``'s admin role."
      },
      "hasRole(bytes32,address)": {
        "details": "Returns `true` if `account` has been granted `role`."
      },
      "renounceRole(bytes32,address)": {
        "details": "Revokes `role` from the calling account. Roles are often managed via {grantRole} and {revokeRole}: this function's purpose is to provide a mechanism for accounts to lose their privileges if they are compromised (such as when a trusted device is misplaced). If the calling account had been revoked `role`, emits a {RoleRevoked} event. Requirements: - the caller must be `account`."
      },
      "revokeRole(bytes32,address)": {
        "details": "Revokes `role` from `account`. If `account` had been granted `role`, emits a {RoleRevoked} event. Requirements: - the caller must have ``role``'s admin role."
      },
      "supportsInterface(bytes4)": {
        "details": "See {IERC165-supportsInterface}."
      }
    },
    "version": 1
  },
  "userdoc": {
    "kind": "user",
    "methods": {},
    "version": 1
  }
}