{
  "contractName": "MetaverseNFT721",
  "abi": [
    {
      "inputs": [],
      "stateMutability": "nonpayable",
      "type": "constructor"
    },
    {
      "anonymous": false,
      "inputs": [
        {
          "indexed": true,
          "internalType": "address",
          "name": "owner",
          "type": "address"
        },
        {
          "indexed": true,
          "internalType": "address",
          "name": "approved",
          "type": "address"
        },
        {
          "indexed": true,
          "internalType": "uint256",
          "name": "tokenId",
          "type": "uint256"
        }
      ],
      "name": "Approval",
      "type": "event"
    },
    {
      "anonymous": false,
      "inputs": [
        {
          "indexed": true,
          "internalType": "address",
          "name": "owner",
          "type": "address"
        },
        {
          "indexed": true,
          "internalType": "address",
          "name": "operator",
          "type": "address"
        },
        {
          "indexed": false,
          "internalType": "bool",
          "name": "approved",
          "type": "bool"
        }
      ],
      "name": "ApprovalForAll",
      "type": "event"
    },
    {
      "anonymous": false,
      "inputs": [
        {
          "indexed": false,
          "internalType": "address",
          "name": "account",
          "type": "address"
        }
      ],
      "name": "Paused",
      "type": "event"
    },
    {
      "anonymous": false,
      "inputs": [
        {
          "indexed": true,
          "internalType": "bytes32",
          "name": "role",
          "type": "bytes32"
        },
        {
          "indexed": true,
          "internalType": "bytes32",
          "name": "previousAdminRole",
          "type": "bytes32"
        },
        {
          "indexed": true,
          "internalType": "bytes32",
          "name": "newAdminRole",
          "type": "bytes32"
        }
      ],
      "name": "RoleAdminChanged",
      "type": "event"
    },
    {
      "anonymous": false,
      "inputs": [
        {
          "indexed": true,
          "internalType": "bytes32",
          "name": "role",
          "type": "bytes32"
        },
        {
          "indexed": true,
          "internalType": "address",
          "name": "account",
          "type": "address"
        },
        {
          "indexed": true,
          "internalType": "address",
          "name": "sender",
          "type": "address"
        }
      ],
      "name": "RoleGranted",
      "type": "event"
    },
    {
      "anonymous": false,
      "inputs": [
        {
          "indexed": true,
          "internalType": "bytes32",
          "name": "role",
          "type": "bytes32"
        },
        {
          "indexed": true,
          "internalType": "address",
          "name": "account",
          "type": "address"
        },
        {
          "indexed": true,
          "internalType": "address",
          "name": "sender",
          "type": "address"
        }
      ],
      "name": "RoleRevoked",
      "type": "event"
    },
    {
      "anonymous": false,
      "inputs": [
        {
          "indexed": true,
          "internalType": "address",
          "name": "from",
          "type": "address"
        },
        {
          "indexed": true,
          "internalType": "address",
          "name": "to",
          "type": "address"
        },
        {
          "indexed": true,
          "internalType": "uint256",
          "name": "tokenId",
          "type": "uint256"
        }
      ],
      "name": "Transfer",
      "type": "event"
    },
    {
      "anonymous": false,
      "inputs": [
        {
          "indexed": false,
          "internalType": "address",
          "name": "account",
          "type": "address"
        }
      ],
      "name": "Unpaused",
      "type": "event"
    },
    {
      "inputs": [],
      "name": "DEFAULT_ADMIN_ROLE",
      "outputs": [
        {
          "internalType": "bytes32",
          "name": "",
          "type": "bytes32"
        }
      ],
      "stateMutability": "view",
      "type": "function",
      "constant": true
    },
    {
      "inputs": [],
      "name": "MINTER_ROLE",
      "outputs": [
        {
          "internalType": "bytes32",
          "name": "",
          "type": "bytes32"
        }
      ],
      "stateMutability": "view",
      "type": "function",
      "constant": true
    },
    {
      "inputs": [],
      "name": "PAUSER_ROLE",
      "outputs": [
        {
          "internalType": "bytes32",
          "name": "",
          "type": "bytes32"
        }
      ],
      "stateMutability": "view",
      "type": "function",
      "constant": true
    },
    {
      "inputs": [],
      "name": "VENDING_MACHINE_ROLE",
      "outputs": [
        {
          "internalType": "bytes32",
          "name": "",
          "type": "bytes32"
        }
      ],
      "stateMutability": "view",
      "type": "function",
      "constant": true
    },
    {
      "inputs": [
        {
          "internalType": "address",
          "name": "to",
          "type": "address"
        },
        {
          "internalType": "uint256",
          "name": "tokenId",
          "type": "uint256"
        }
      ],
      "name": "approve",
      "outputs": [],
      "stateMutability": "nonpayable",
      "type": "function"
    },
    {
      "inputs": [
        {
          "internalType": "address",
          "name": "owner",
          "type": "address"
        }
      ],
      "name": "balanceOf",
      "outputs": [
        {
          "internalType": "uint256",
          "name": "",
          "type": "uint256"
        }
      ],
      "stateMutability": "view",
      "type": "function",
      "constant": true
    },
    {
      "inputs": [
        {
          "internalType": "uint256",
          "name": "tokenId",
          "type": "uint256"
        }
      ],
      "name": "burn",
      "outputs": [],
      "stateMutability": "nonpayable",
      "type": "function"
    },
    {
      "inputs": [
        {
          "internalType": "uint256",
          "name": "tokenId",
          "type": "uint256"
        }
      ],
      "name": "getApproved",
      "outputs": [
        {
          "internalType": "address",
          "name": "",
          "type": "address"
        }
      ],
      "stateMutability": "view",
      "type": "function",
      "constant": true
    },
    {
      "inputs": [
        {
          "internalType": "bytes32",
          "name": "role",
          "type": "bytes32"
        }
      ],
      "name": "getRoleAdmin",
      "outputs": [
        {
          "internalType": "bytes32",
          "name": "",
          "type": "bytes32"
        }
      ],
      "stateMutability": "view",
      "type": "function",
      "constant": true
    },
    {
      "inputs": [
        {
          "internalType": "bytes32",
          "name": "role",
          "type": "bytes32"
        },
        {
          "internalType": "address",
          "name": "account",
          "type": "address"
        }
      ],
      "name": "grantRole",
      "outputs": [],
      "stateMutability": "nonpayable",
      "type": "function"
    },
    {
      "inputs": [
        {
          "internalType": "bytes32",
          "name": "role",
          "type": "bytes32"
        },
        {
          "internalType": "address",
          "name": "account",
          "type": "address"
        }
      ],
      "name": "hasRole",
      "outputs": [
        {
          "internalType": "bool",
          "name": "",
          "type": "bool"
        }
      ],
      "stateMutability": "view",
      "type": "function",
      "constant": true
    },
    {
      "inputs": [
        {
          "internalType": "address",
          "name": "owner",
          "type": "address"
        },
        {
          "internalType": "address",
          "name": "operator",
          "type": "address"
        }
      ],
      "name": "isApprovedForAll",
      "outputs": [
        {
          "internalType": "bool",
          "name": "",
          "type": "bool"
        }
      ],
      "stateMutability": "view",
      "type": "function",
      "constant": true
    },
    {
      "inputs": [],
      "name": "name",
      "outputs": [
        {
          "internalType": "string",
          "name": "",
          "type": "string"
        }
      ],
      "stateMutability": "view",
      "type": "function",
      "constant": true
    },
    {
      "inputs": [
        {
          "internalType": "uint256",
          "name": "tokenId",
          "type": "uint256"
        }
      ],
      "name": "ownerOf",
      "outputs": [
        {
          "internalType": "address",
          "name": "",
          "type": "address"
        }
      ],
      "stateMutability": "view",
      "type": "function",
      "constant": true
    },
    {
      "inputs": [],
      "name": "paused",
      "outputs": [
        {
          "internalType": "bool",
          "name": "",
          "type": "bool"
        }
      ],
      "stateMutability": "view",
      "type": "function",
      "constant": true
    },
    {
      "inputs": [
        {
          "internalType": "bytes32",
          "name": "role",
          "type": "bytes32"
        },
        {
          "internalType": "address",
          "name": "account",
          "type": "address"
        }
      ],
      "name": "renounceRole",
      "outputs": [],
      "stateMutability": "nonpayable",
      "type": "function"
    },
    {
      "inputs": [
        {
          "internalType": "bytes32",
          "name": "role",
          "type": "bytes32"
        },
        {
          "internalType": "address",
          "name": "account",
          "type": "address"
        }
      ],
      "name": "revokeRole",
      "outputs": [],
      "stateMutability": "nonpayable",
      "type": "function"
    },
    {
      "inputs": [
        {
          "internalType": "address",
          "name": "from",
          "type": "address"
        },
        {
          "internalType": "address",
          "name": "to",
          "type": "address"
        },
        {
          "internalType": "uint256",
          "name": "tokenId",
          "type": "uint256"
        }
      ],
      "name": "safeTransferFrom",
      "outputs": [],
      "stateMutability": "nonpayable",
      "type": "function"
    },
    {
      "inputs": [
        {
          "internalType": "address",
          "name": "from",
          "type": "address"
        },
        {
          "internalType": "address",
          "name": "to",
          "type": "address"
        },
        {
          "internalType": "uint256",
          "name": "tokenId",
          "type": "uint256"
        },
        {
          "internalType": "bytes",
          "name": "_data",
          "type": "bytes"
        }
      ],
      "name": "safeTransferFrom",
      "outputs": [],
      "stateMutability": "nonpayable",
      "type": "function"
    },
    {
      "inputs": [
        {
          "internalType": "address",
          "name": "operator",
          "type": "address"
        },
        {
          "internalType": "bool",
          "name": "approved",
          "type": "bool"
        }
      ],
      "name": "setApprovalForAll",
      "outputs": [],
      "stateMutability": "nonpayable",
      "type": "function"
    },
    {
      "inputs": [],
      "name": "symbol",
      "outputs": [
        {
          "internalType": "string",
          "name": "",
          "type": "string"
        }
      ],
      "stateMutability": "view",
      "type": "function",
      "constant": true
    },
    {
      "inputs": [
        {
          "internalType": "uint256",
          "name": "index",
          "type": "uint256"
        }
      ],
      "name": "tokenByIndex",
      "outputs": [
        {
          "internalType": "uint256",
          "name": "",
          "type": "uint256"
        }
      ],
      "stateMutability": "view",
      "type": "function",
      "constant": true
    },
    {
      "inputs": [
        {
          "internalType": "address",
          "name": "owner",
          "type": "address"
        },
        {
          "internalType": "uint256",
          "name": "index",
          "type": "uint256"
        }
      ],
      "name": "tokenOfOwnerByIndex",
      "outputs": [
        {
          "internalType": "uint256",
          "name": "",
          "type": "uint256"
        }
      ],
      "stateMutability": "view",
      "type": "function",
      "constant": true
    },
    {
      "inputs": [],
      "name": "totalSupply",
      "outputs": [
        {
          "internalType": "uint256",
          "name": "",
          "type": "uint256"
        }
      ],
      "stateMutability": "view",
      "type": "function",
      "constant": true
    },
    {
      "inputs": [
        {
          "internalType": "address",
          "name": "from",
          "type": "address"
        },
        {
          "internalType": "address",
          "name": "to",
          "type": "address"
        },
        {
          "internalType": "uint256",
          "name": "tokenId",
          "type": "uint256"
        }
      ],
      "name": "transferFrom",
      "outputs": [],
      "stateMutability": "nonpayable",
      "type": "function"
    },
    {
      "inputs": [],
      "name": "pause",
      "outputs": [],
      "stateMutability": "nonpayable",
      "type": "function"
    },
    {
      "inputs": [],
      "name": "unpause",
      "outputs": [],
      "stateMutability": "nonpayable",
      "type": "function"
    },
    {
      "inputs": [
        {
          "internalType": "address",
          "name": "to",
          "type": "address"
        },
        {
          "internalType": "string",
          "name": "uri",
          "type": "string"
        }
      ],
      "name": "safeMint",
      "outputs": [],
      "stateMutability": "nonpayable",
      "type": "function"
    },
    {
      "inputs": [
        {
          "internalType": "address",
          "name": "to",
          "type": "address"
        },
        {
          "internalType": "uint256",
          "name": "tokenId",
          "type": "uint256"
        }
      ],
      "name": "vendingMachineTransfer",
      "outputs": [],
      "stateMutability": "nonpayable",
      "type": "function"
    },
    {
      "inputs": [
        {
          "internalType": "uint256",
          "name": "tokenId",
          "type": "uint256"
        }
      ],
      "name": "tokenURI",
      "outputs": [
        {
          "internalType": "string",
          "name": "",
          "type": "string"
        }
      ],
      "stateMutability": "view",
      "type": "function",
      "constant": true
    },
    {
      "inputs": [
        {
          "internalType": "bytes4",
          "name": "interfaceId",
          "type": "bytes4"
        }
      ],
      "name": "supportsInterface",
      "outputs": [
        {
          "internalType": "bool",
          "name": "",
          "type": "bool"
        }
      ],
      "stateMutability": "view",
      "type": "function",
      "constant": true
    }
  ],
  "bytecode": "0x60806040523480156200001157600080fd5b50604080518082018252600f81527f4d65746176657273654e4654373231000000000000000000000000000000000060208083019182528351808501909452600384527f4a4f4500000000000000000000000000000000000000000000000000000000009084015281519192916200008c9160009162000203565b508051620000a290600190602084019062000203565b5050600b805460ff1916905550620000c560003364010000000062000135810204565b620000fa7f65d7a28e3265b37a6474929f336521b332c1681b933f6cb9f3376673440d862a3364010000000062000135810204565b6200012f7f9f2df0fed2c77648de5860a4cc508cd0818c85b8b8a1ab4ceeef8d981c8956a63364010000000062000135810204565b620002ff565b6200014a8282640100000000620001d4810204565b620001d0576000828152600c60209081526040808320600160a060020a03851684529091529020805460ff191660011790556200018f640100000000620001ff810204565b600160a060020a031681600160a060020a0316837f2f8788117e7eff1d82e926ec794901d17c78024a50270940304540a733656f0d60405160405180910390a45b5050565b6000918252600c60209081526040808420600160a060020a0393909316845291905290205460ff1690565b3390565b8280546200021190620002a9565b90600052602060002090601f01602090048101928262000235576000855562000280565b82601f106200025057805160ff191683800117855562000280565b8280016001018555821562000280579182015b828111156200028057825182559160200191906001019062000263565b506200028e92915062000292565b5090565b5b808211156200028e576000815560010162000293565b600281046001821680620002be57607f821691505b60208210811415620002f9577f4e487b7100000000000000000000000000000000000000000000000000000000600052602260045260246000fd5b50919050565b6129d1806200030f6000396000f3fe608060405234801561001057600080fd5b5060043610610202576000357c0100000000000000000000000000000000000000000000000000000000900480636352211e1161012c578063c6eb684c116100bf578063d547741f1161008e578063d547741f14610428578063e63ab1e91461043b578063e985e9c514610462578063f3aef8a51461049e57600080fd5b8063c6eb684c146103c8578063c87b56dd146103db578063d204c45e146103ee578063d53913931461040157600080fd5b806395d89b41116100fb57806395d89b4114610392578063a217fddf1461039a578063a22cb465146103a2578063b88d4fde146103b557600080fd5b80636352211e1461035157806370a08231146103645780638456cb591461037757806391d148541461037f57600080fd5b80632f2ff15d116101a457806342842e0e1161017357806342842e0e1461030d57806342966c68146103205780634f6ccce7146103335780635c975abb1461034657600080fd5b80632f2ff15d146102cc5780632f745c59146102df57806336568abe146102f25780633f4ba83a1461030557600080fd5b8063095ea7b3116101e0578063095ea7b31461026f57806318160ddd1461028457806323b872dd14610296578063248a9ca3146102a957600080fd5b806301ffc9a71461020757806306fdde031461022f578063081812fc14610244575b600080fd5b61021a61021536600461260b565b6104c5565b60405190151581526020015b60405180910390f35b6102376104d6565b604051610226919061275b565b6102576102523660046125d1565b610568565b604051600160a060020a039091168152602001610226565b61028261027d3660046125a8565b610609565b005b6008545b604051908152602001610226565b6102826102a436600461245b565b610741565b6102886102b73660046125d1565b6000908152600c602052604090206001015490565b6102826102da3660046125e9565b610776565b6102886102ed3660046125a8565b61079b565b6102826103003660046125e9565b610846565b6102826108d5565b61028261031b36600461245b565b61090a565b61028261032e3660046125d1565b610925565b6102886103413660046125d1565b6109ac565b600b5460ff1661021a565b61025761035f3660046125d1565b610a64565b61028861037236600461240f565b610af2565b610282610b8f565b61021a61038d3660046125e9565b610bc1565b610237610bec565b610288600081565b6102826103b036600461250f565b610bfb565b6102826103c3366004612496565b610c06565b6102826103d63660046125a8565b610c41565b6102376103e93660046125d1565b610c8a565b6102826103fc366004612549565b610c95565b6102887f9f2df0fed2c77648de5860a4cc508cd0818c85b8b8a1ab4ceeef8d981c8956a681565b6102826104363660046125e9565b610cee565b6102887f65d7a28e3265b37a6474929f336521b332c1681b933f6cb9f3376673440d862a81565b61021a610470366004612429565b600160a060020a03918216600090815260056020908152604080832093909416825291909152205460ff1690565b6102887f84bbe3037aa319fcb412a1a4f52c13452b6c32a80093137f4980362b197810dc81565b60006104d082610d13565b92915050565b6060600080546104e5906128cd565b80601f0160208091040260200160405190810160405280929190818152602001828054610511906128cd565b801561055e5780601f106105335761010080835404028352916020019161055e565b820191906000526020600020905b81548152906001019060200180831161054157829003601f168201915b5050505050905090565b600061057382610d51565b6105ed5760405160e560020a62461bcd02815260206004820152602c60248201527f4552433732313a20617070726f76656420717565727920666f72206e6f6e657860448201527f697374656e7420746f6b656e000000000000000000000000000000000000000060648201526084015b60405180910390fd5b50600090815260046020526040902054600160a060020a031690565b600061061482610a64565b905080600160a060020a031683600160a060020a031614156106a15760405160e560020a62461bcd02815260206004820152602160248201527f4552433732313a20617070726f76616c20746f2063757272656e74206f776e6560448201527f720000000000000000000000000000000000000000000000000000000000000060648201526084016105e4565b33600160a060020a03821614806106bd57506106bd8133610470565b6107325760405160e560020a62461bcd02815260206004820152603860248201527f4552433732313a20617070726f76652063616c6c6572206973206e6f74206f7760448201527f6e6572206e6f7220617070726f76656420666f7220616c6c000000000000000060648201526084016105e4565b61073c8383610d6e565b505050565b61074c335b82610de9565b61076b5760405160e560020a62461bcd0281526004016105e4906127cb565b61073c838383610ee7565b6000828152600c6020526040902060010154610791816110d2565b61073c83836110dc565b60006107a683610af2565b821061081d5760405160e560020a62461bcd02815260206004820152602b60248201527f455243373231456e756d657261626c653a206f776e657220696e646578206f7560448201527f74206f6620626f756e647300000000000000000000000000000000000000000060648201526084016105e4565b50600160a060020a03919091166000908152600660209081526040808320938352929052205490565b600160a060020a03811633146108c75760405160e560020a62461bcd02815260206004820152602f60248201527f416363657373436f6e74726f6c3a2063616e206f6e6c792072656e6f756e636560448201527f20726f6c657320666f722073656c66000000000000000000000000000000000060648201526084016105e4565b6108d18282611162565b5050565b7f65d7a28e3265b37a6474929f336521b332c1681b933f6cb9f3376673440d862a6108ff816110d2565b6109076111c9565b50565b61073c83838360405180602001604052806000815250610c06565b61092e33610746565b6109a35760405160e560020a62461bcd02815260206004820152603060248201527f4552433732314275726e61626c653a2063616c6c6572206973206e6f74206f7760448201527f6e6572206e6f7220617070726f7665640000000000000000000000000000000060648201526084016105e4565b61090781611268565b60006109b760085490565b8210610a2e5760405160e560020a62461bcd02815260206004820152602c60248201527f455243373231456e756d657261626c653a20676c6f62616c20696e646578206f60448201527f7574206f6620626f756e6473000000000000000000000000000000000000000060648201526084016105e4565b60088281548110610a525760e060020a634e487b7102600052603260045260246000fd5b90600052602060002001549050919050565b600081815260026020526040812054600160a060020a0316806104d05760405160e560020a62461bcd02815260206004820152602960248201527f4552433732313a206f776e657220717565727920666f72206e6f6e657869737460448201527f656e7420746f6b656e000000000000000000000000000000000000000000000060648201526084016105e4565b6000600160a060020a038216610b735760405160e560020a62461bcd02815260206004820152602a60248201527f4552433732313a2062616c616e636520717565727920666f7220746865207a6560448201527f726f20616464726573730000000000000000000000000000000000000000000060648201526084016105e4565b50600160a060020a031660009081526003602052604090205490565b7f65d7a28e3265b37a6474929f336521b332c1681b933f6cb9f3376673440d862a610bb9816110d2565b610907611271565b6000918252600c60209081526040808420600160a060020a0393909316845291905290205460ff1690565b6060600180546104e5906128cd565b6108d13383836112fc565b610c103383610de9565b610c2f5760405160e560020a62461bcd0281526004016105e4906127cb565b610c3b848484846113ce565b50505050565b7f84bbe3037aa319fcb412a1a4f52c13452b6c32a80093137f4980362b197810dc610c6b816110d2565b61073c73ab3cbe5e57e0b2035831dca8e0ce8f10f2efa05d8484610ee7565b60606104d082611404565b7f9f2df0fed2c77648de5860a4cc508cd0818c85b8b8a1ab4ceeef8d981c8956a6610cbf816110d2565b6000610cca600d5490565b9050610cda600d80546001019055565b610ce48482611582565b610c3b818461159c565b6000828152600c6020526040902060010154610d09816110d2565b61073c8383611162565b6000600160e060020a031982167f7965db0b0000000000000000000000000000000000000000000000000000000014806104d057506104d082611639565b600090815260026020526040902054600160a060020a0316151590565b6000818152600460205260409020805473ffffffffffffffffffffffffffffffffffffffff1916600160a060020a0384169081179091558190610db082610a64565b600160a060020a03167f8c5be1e5ebec7d5bd14f71427d1e84f3dd0314c0f7b2291e5b200ac8c7c3b92560405160405180910390a45050565b6000610df482610d51565b610e695760405160e560020a62461bcd02815260206004820152602c60248201527f4552433732313a206f70657261746f7220717565727920666f72206e6f6e657860448201527f697374656e7420746f6b656e000000000000000000000000000000000000000060648201526084016105e4565b6000610e7483610a64565b905080600160a060020a031684600160a060020a03161480610ebb5750600160a060020a0380821660009081526005602090815260408083209388168352929052205460ff165b80610edf575083600160a060020a0316610ed484610568565b600160a060020a0316145b949350505050565b82600160a060020a0316610efa82610a64565b600160a060020a031614610f795760405160e560020a62461bcd02815260206004820152602560248201527f4552433732313a207472616e736665722066726f6d20696e636f72726563742060448201527f6f776e657200000000000000000000000000000000000000000000000000000060648201526084016105e4565b600160a060020a038216610ff75760405160e560020a62461bcd028152602060048201526024808201527f4552433732313a207472616e7366657220746f20746865207a65726f2061646460448201527f726573730000000000000000000000000000000000000000000000000000000060648201526084016105e4565b611002838383611677565b61100d600082610d6e565b600160a060020a0383166000908152600360205260408120805460019290611036908490612873565b9091555050600160a060020a0382166000908152600360205260408120805460019290611064908490612828565b9091555050600081815260026020526040808220805473ffffffffffffffffffffffffffffffffffffffff1916600160a060020a0386811691821790925591518493918716917fddf252ad1be2c89b69c2b068fc378daa952ba7f163c4a11628f55a4df523b3ef91a4505050565b61090781336116d8565b6110e68282610bc1565b6108d1576000828152600c60209081526040808320600160a060020a03851684529091529020805460ff1916600117905561111e3390565b600160a060020a031681600160a060020a0316837f2f8788117e7eff1d82e926ec794901d17c78024a50270940304540a733656f0d60405160405180910390a45050565b61116c8282610bc1565b156108d1576000828152600c60209081526040808320600160a060020a0385168085529252808320805460ff1916905551339285917ff6391f5c32d9c69d2a47ea670b442974b53935d1edc7fd64eb21e047a839171b9190a45050565b600b5460ff1661121e5760405160e560020a62461bcd02815260206004820152601460248201527f5061757361626c653a206e6f742070617573656400000000000000000000000060448201526064016105e4565b600b805460ff191690557f5db9ee0a495bf2e6ff9c91a7834c1ba4fdd244a5e8aa4e537bd38aeae4b073aa335b604051600160a060020a03909116815260200160405180910390a1565b6109078161173f565b600b5460ff16156112c75760405160e560020a62461bcd02815260206004820152601060248201527f5061757361626c653a207061757365640000000000000000000000000000000060448201526064016105e4565b600b805460ff191660011790557f62e78cea01bee320cd4e420270b5ea74000d11b0c9f74754ebdbfc544b05a25861124b3390565b81600160a060020a031683600160a060020a031614156113615760405160e560020a62461bcd02815260206004820152601960248201527f4552433732313a20617070726f766520746f2063616c6c65720000000000000060448201526064016105e4565b600160a060020a03838116600081815260056020908152604080832094871680845294825291829020805460ff191686151590811790915591519182527f17307eab39ab6107e8899845ad3d59bd9653f200f220920489ca2b5937696c31910160405180910390a3505050565b6113d9848484610ee7565b6113e58484848461177f565b610c3b5760405160e560020a62461bcd0281526004016105e49061276e565b606061140f82610d51565b6114845760405160e560020a62461bcd02815260206004820152603160248201527f45524337323155524953746f726167653a2055524920717565727920666f722060448201527f6e6f6e6578697374656e7420746f6b656e00000000000000000000000000000060648201526084016105e4565b6000828152600a60205260408120805461149d906128cd565b80601f01602080910402602001604051908101604052809291908181526020018280546114c9906128cd565b80156115165780601f106114eb57610100808354040283529160200191611516565b820191906000526020600020905b8154815290600101906020018083116114f957829003601f168201915b50505050509050600061153460408051602081019091526000815290565b9050805160001415611547575092915050565b81511561157957808260405160200161156192919061266f565b60405160208183030381529060405292505050919050565b610edf846118c1565b6108d18282604051806020016040528060008152506119aa565b6115a582610d51565b61161a5760405160e560020a62461bcd02815260206004820152602e60248201527f45524337323155524953746f726167653a2055524920736574206f66206e6f6e60448201527f6578697374656e7420746f6b656e00000000000000000000000000000000000060648201526084016105e4565b6000828152600a60209081526040909120825161073c928401906122ae565b6000600160e060020a031982167f780e9d630000000000000000000000000000000000000000000000000000000014806104d057506104d0826119e0565b600b5460ff16156116cd5760405160e560020a62461bcd02815260206004820152601060248201527f5061757361626c653a207061757365640000000000000000000000000000000060448201526064016105e4565b61073c838383611a7b565b6116e28282610bc1565b6108d1576116fa81600160a060020a03166014611b33565b611705836020611b33565b60405160200161171692919061269e565b60408051601f198184030181529082905260e560020a62461bcd0282526105e49160040161275b565b61174881611d8a565b6000818152600a602052604090208054611761906128cd565b159050610907576000818152600a6020526040812061090791612332565b6000600160a060020a0384163b156118b6576040517f150b7a02000000000000000000000000000000000000000000000000000000008152600160a060020a0385169063150b7a02906117dc90339089908890889060040161271f565b602060405180830381600087803b1580156117f657600080fd5b505af1925050508015611826575060408051601f3d908101601f1916820190925261182391810190612627565b60015b611883573d808015611854576040519150601f19603f3d011682016040523d82523d6000602084013e611859565b606091505b50805161187b5760405160e560020a62461bcd0281526004016105e49061276e565b805181602001fd5b600160e060020a0319167f150b7a0200000000000000000000000000000000000000000000000000000000149050610edf565b506001949350505050565b60606118cc82610d51565b6119415760405160e560020a62461bcd02815260206004820152602f60248201527f4552433732314d657461646174613a2055524920717565727920666f72206e6f60448201527f6e6578697374656e7420746f6b656e000000000000000000000000000000000060648201526084016105e4565b600061195860408051602081019091526000815290565b9050600081511161197857604051806020016040528060008152506119a3565b8061198284611e3e565b60405160200161199392919061266f565b6040516020818303038152906040525b9392505050565b6119b48383611f99565b6119c1600084848461177f565b61073c5760405160e560020a62461bcd0281526004016105e49061276e565b6000600160e060020a031982167f80ac58cd000000000000000000000000000000000000000000000000000000001480611a435750600160e060020a031982167f5b5e139f00000000000000000000000000000000000000000000000000000000145b806104d057507f01ffc9a700000000000000000000000000000000000000000000000000000000600160e060020a03198316146104d0565b600160a060020a038316611ad657611ad181600880546000838152600960205260408120829055600182018355919091527ff3f7a9fe364faab93b216da50a3214154f22a0a2b415b23a84c8169e8b636ee30155565b611af9565b81600160a060020a031683600160a060020a031614611af957611af983826120eb565b600160a060020a038216611b105761073c81612188565b82600160a060020a031682600160a060020a03161461073c5761073c828261226a565b60606000611b42836002612854565b611b4d906002612828565b67ffffffffffffffff811115611b765760e060020a634e487b7102600052604160045260246000fd5b6040519080825280601f01601f191660200182016040528015611ba0576020820181803683370190505b5090507f300000000000000000000000000000000000000000000000000000000000000081600081518110611be85760e060020a634e487b7102600052603260045260246000fd5b6020010190600160f860020a031916908160001a9053507f780000000000000000000000000000000000000000000000000000000000000081600181518110611c445760e060020a634e487b7102600052603260045260246000fd5b6020010190600160f860020a031916908160001a9053506000611c68846002612854565b611c73906001612828565b90505b6001811115611d38577f303132333435363738396162636465660000000000000000000000000000000085600f1660108110611cc55760e060020a634e487b7102600052603260045260246000fd5b1a7f010000000000000000000000000000000000000000000000000000000000000002828281518110611d0b5760e060020a634e487b7102600052603260045260246000fd5b6020010190600160f860020a031916908160001a905350601090940493611d31816128b6565b9050611c76565b5083156119a35760405160e560020a62461bcd02815260206004820181905260248201527f537472696e67733a20686578206c656e67746820696e73756666696369656e7460448201526064016105e4565b6000611d9582610a64565b9050611da381600084611677565b611dae600083610d6e565b600160a060020a0381166000908152600360205260408120805460019290611dd7908490612873565b9091555050600082815260026020526040808220805473ffffffffffffffffffffffffffffffffffffffff1916905551839190600160a060020a038416907fddf252ad1be2c89b69c2b068fc378daa952ba7f163c4a11628f55a4df523b3ef908390a45050565b606081611e7e57505060408051808201909152600181527f3000000000000000000000000000000000000000000000000000000000000000602082015290565b8160005b8115611ea85780611e928161290b565b9150611ea19050600a83612840565b9150611e82565b60008167ffffffffffffffff811115611ed45760e060020a634e487b7102600052604160045260246000fd5b6040519080825280601f01601f191660200182016040528015611efe576020820181803683370190505b5090505b8415610edf57611f13600183612873565b9150611f20600a86612926565b611f2b906030612828565b7f010000000000000000000000000000000000000000000000000000000000000002818381518110611f705760e060020a634e487b7102600052603260045260246000fd5b6020010190600160f860020a031916908160001a905350611f92600a86612840565b9450611f02565b600160a060020a038216611ff25760405160e560020a62461bcd02815260206004820181905260248201527f4552433732313a206d696e7420746f20746865207a65726f206164647265737360448201526064016105e4565b611ffb81610d51565b1561204b5760405160e560020a62461bcd02815260206004820152601c60248201527f4552433732313a20746f6b656e20616c7265616479206d696e7465640000000060448201526064016105e4565b61205760008383611677565b600160a060020a0382166000908152600360205260408120805460019290612080908490612828565b9091555050600081815260026020526040808220805473ffffffffffffffffffffffffffffffffffffffff1916600160a060020a03861690811790915590518392907fddf252ad1be2c89b69c2b068fc378daa952ba7f163c4a11628f55a4df523b3ef908290a45050565b600060016120f884610af2565b6121029190612873565b60008381526007602052604090205490915080821461215557600160a060020a03841660009081526006602090815260408083208584528252808320548484528184208190558352600790915290208190555b506000918252600760209081526040808420849055600160a060020a039094168352600681528383209183525290812055565b60085460009061219a90600190612873565b600083815260096020526040812054600880549394509092849081106121d35760e060020a634e487b7102600052603260045260246000fd5b9060005260206000200154905080600883815481106122055760e060020a634e487b7102600052603260045260246000fd5b600091825260208083209091019290925582815260099091526040808220849055858252812055600880548061224e5760e060020a634e487b7102600052603160045260246000fd5b6001900381819060005260206000200160009055905550505050565b600061227583610af2565b600160a060020a039093166000908152600660209081526040808320868452825280832085905593825260079052919091209190915550565b8280546122ba906128cd565b90600052602060002090601f0160209004810192826122dc5760008555612322565b82601f106122f557805160ff1916838001178555612322565b82800160010185558215612322579182015b82811115612322578251825591602001919060010190612307565b5061232e929150612368565b5090565b50805461233e906128cd565b6000825580601f1061234e575050565b601f01602090049060005260206000209081019061090791905b5b8082111561232e5760008155600101612369565b600067ffffffffffffffff808411156123985761239861296c565b604051601f8501601f19908116603f011681019082821181831017156123c0576123c061296c565b816040528093508581528686860111156123d957600080fd5b858560208301376000602087830101525050509392505050565b8035600160a060020a038116811461240a57600080fd5b919050565b600060208284031215612420578081fd5b6119a3826123f3565b6000806040838503121561243b578081fd5b612444836123f3565b9150612452602084016123f3565b90509250929050565b60008060006060848603121561246f578081fd5b612478846123f3565b9250612486602085016123f3565b9150604084013590509250925092565b600080600080608085870312156124ab578081fd5b6124b4856123f3565b93506124c2602086016123f3565b925060408501359150606085013567ffffffffffffffff8111156124e4578182fd5b8501601f810187136124f4578182fd5b6125038782356020840161237d565b91505092959194509250565b60008060408385031215612521578182fd5b61252a836123f3565b91506020830135801515811461253e578182fd5b809150509250929050565b6000806040838503121561255b578182fd5b612564836123f3565b9150602083013567ffffffffffffffff81111561257f578182fd5b8301601f8101851361258f578182fd5b61259e8582356020840161237d565b9150509250929050565b600080604083850312156125ba578182fd5b6125c3836123f3565b946020939093013593505050565b6000602082840312156125e2578081fd5b5035919050565b600080604083850312156125fb578182fd5b82359150612452602084016123f3565b60006020828403121561261c578081fd5b81356119a381612985565b600060208284031215612638578081fd5b81516119a381612985565b6000815180845261265b81602086016020860161288a565b601f01601f19169290920160200192915050565b6000835161268181846020880161288a565b83519083019061269581836020880161288a565b01949350505050565b7f416363657373436f6e74726f6c3a206163636f756e74200000000000000000008152600083516126d681601785016020880161288a565b7f206973206d697373696e6720726f6c6520000000000000000000000000000000601791840191820152835161271381602884016020880161288a565b01602801949350505050565b6000600160a060020a038087168352808616602084015250836040830152608060608301526127516080830184612643565b9695505050505050565b6020815260006119a36020830184612643565b60208082526032908201527f4552433732313a207472616e7366657220746f206e6f6e20455243373231526560408201527f63656976657220696d706c656d656e7465720000000000000000000000000000606082015260800190565b60208082526031908201527f4552433732313a207472616e736665722063616c6c6572206973206e6f74206f60408201527f776e6572206e6f7220617070726f766564000000000000000000000000000000606082015260800190565b6000821982111561283b5761283b61293a565b500190565b60008261284f5761284f612953565b500490565b600081600019048311821515161561286e5761286e61293a565b500290565b6000828210156128855761288561293a565b500390565b60005b838110156128a557818101518382015260200161288d565b83811115610c3b5750506000910152565b6000816128c5576128c561293a565b506000190190565b6002810460018216806128e157607f821691505b602082108114156129055760e060020a634e487b7102600052602260045260246000fd5b50919050565b600060001982141561291f5761291f61293a565b5060010190565b60008261293557612935612953565b500690565b60e060020a634e487b7102600052601160045260246000fd5b60e060020a634e487b7102600052601260045260246000fd5b60e060020a634e487b7102600052604160045260246000fd5b600160e060020a03198116811461090757600080fdfea2646970667358221220166a0b3df937da2641e824345d00227c02a51a684e1767add35ce1397fc1472964736f6c63430008040033",
  "immutableReferences": {},
  "source": "// SPDX-License-Identifier: MIT\npragma solidity ^0.8.4;\n\nimport \"@openzeppelin/contracts/token/ERC721/ERC721.sol\";\nimport \"@openzeppelin/contracts/token/ERC721/extensions/ERC721Enumerable.sol\";\nimport \"@openzeppelin/contracts/token/ERC721/extensions/ERC721URIStorage.sol\";\nimport \"@openzeppelin/contracts/security/Pausable.sol\";\nimport \"@openzeppelin/contracts/access/AccessControl.sol\";\nimport \"@openzeppelin/contracts/token/ERC721/extensions/ERC721Burnable.sol\";\nimport \"@openzeppelin/contracts/utils/Counters.sol\";\n\ncontract MetaverseNFT721 is ERC721, ERC721Enumerable, ERC721URIStorage, Pausable, AccessControl, ERC721Burnable {\n  using Counters for Counters.Counter;\n\n  address constant metaverseEOAAddress = 0xAb3cbE5E57e0B2035831DcA8e0Ce8f10F2eFa05D;\n  bytes32 public constant PAUSER_ROLE = keccak256(\"PAUSER_ROLE\");\n  bytes32 public constant MINTER_ROLE = keccak256(\"MINTER_ROLE\");\n  bytes32 public constant VENDING_MACHINE_ROLE = keccak256(\"VENDING_MACHINE_ROLE\");\n  Counters.Counter private _tokenIdCounter;\n\n  constructor() ERC721(\"MetaverseNFT721\", \"JOE\") {\n    _grantRole(DEFAULT_ADMIN_ROLE, msg.sender);\n    _grantRole(PAUSER_ROLE, msg.sender);\n    _grantRole(MINTER_ROLE, msg.sender);\n  }\n\n  function pause() public onlyRole(PAUSER_ROLE) {\n    _pause();\n  }\n\n  function unpause() public onlyRole(PAUSER_ROLE) {\n    _unpause();\n  }\n\n  function safeMint(address to, string memory uri) public onlyRole(MINTER_ROLE) {\n    uint256 tokenId = _tokenIdCounter.current();\n    _tokenIdCounter.increment();\n    _safeMint(to, tokenId);\n    _setTokenURI(tokenId, uri);\n  }\n\n  function _beforeTokenTransfer(address from, address to, uint256 tokenId)\n    internal\n    whenNotPaused\n    override(ERC721, ERC721Enumerable)\n  {\n    super._beforeTokenTransfer(from, to, tokenId);\n  }\n\n  // vending machines are able to bypass ownership checks and transfer NFTs out of pre-determined addresses,\n  function vendingMachineTransfer(address to, uint256 tokenId) public onlyRole(VENDING_MACHINE_ROLE) {\n    _transfer(metaverseEOAAddress, to, tokenId);\n  }\n\n  // The following functions are overrides required by Solidity.\n\n  function _burn(uint256 tokenId) internal override(ERC721, ERC721URIStorage) {\n    super._burn(tokenId);\n  }\n\n  function tokenURI(uint256 tokenId)\n    public\n    view\n    override(ERC721, ERC721URIStorage)\n    returns (string memory)\n  {\n    return super.tokenURI(tokenId);\n  }\n\n  function supportsInterface(bytes4 interfaceId)\n    public\n    view\n    override(ERC721, ERC721Enumerable, AccessControl)\n    returns (bool)\n  {\n    return super.supportsInterface(interfaceId);\n  }\n}\n",
  "sourcePath": "/home/consensys/Documents/GitHub/hackathon-metaverse-smartcontracts/contracts/MetaverseNFT721.sol",
  "compiler": {
    "name": "solc",
    "version": "0.8.4+commit.c7e474f2.Emscripten.clang"
  },
  "schemaVersion": "3.4.3",
  "updatedAt": "2022-05-15T01:41:38.174Z",
  "networkType": "ethereum",
  "devdoc": {
    "kind": "dev",
    "methods": {
      "approve(address,uint256)": {
        "details": "See {IERC721-approve}."
      },
      "balanceOf(address)": {
        "details": "See {IERC721-balanceOf}."
      },
      "burn(uint256)": {
        "details": "Burns `tokenId`. See {ERC721-_burn}. Requirements: - The caller must own `tokenId` or be an approved operator."
      },
      "getApproved(uint256)": {
        "details": "See {IERC721-getApproved}."
      },
      "getRoleAdmin(bytes32)": {
        "details": "Returns the admin role that controls `role`. See {grantRole} and {revokeRole}. To change a role's admin, use {_setRoleAdmin}."
      },
      "grantRole(bytes32,address)": {
        "details": "Grants `role` to `account`. If `account` had not been already granted `role`, emits a {RoleGranted} event. Requirements: - the caller must have ``role``'s admin role."
      },
      "hasRole(bytes32,address)": {
        "details": "Returns `true` if `account` has been granted `role`."
      },
      "isApprovedForAll(address,address)": {
        "details": "See {IERC721-isApprovedForAll}."
      },
      "name()": {
        "details": "See {IERC721Metadata-name}."
      },
      "ownerOf(uint256)": {
        "details": "See {IERC721-ownerOf}."
      },
      "paused()": {
        "details": "Returns true if the contract is paused, and false otherwise."
      },
      "renounceRole(bytes32,address)": {
        "details": "Revokes `role` from the calling account. Roles are often managed via {grantRole} and {revokeRole}: this function's purpose is to provide a mechanism for accounts to lose their privileges if they are compromised (such as when a trusted device is misplaced). If the calling account had been revoked `role`, emits a {RoleRevoked} event. Requirements: - the caller must be `account`."
      },
      "revokeRole(bytes32,address)": {
        "details": "Revokes `role` from `account`. If `account` had been granted `role`, emits a {RoleRevoked} event. Requirements: - the caller must have ``role``'s admin role."
      },
      "safeTransferFrom(address,address,uint256)": {
        "details": "See {IERC721-safeTransferFrom}."
      },
      "safeTransferFrom(address,address,uint256,bytes)": {
        "details": "See {IERC721-safeTransferFrom}."
      },
      "setApprovalForAll(address,bool)": {
        "details": "See {IERC721-setApprovalForAll}."
      },
      "symbol()": {
        "details": "See {IERC721Metadata-symbol}."
      },
      "tokenByIndex(uint256)": {
        "details": "See {IERC721Enumerable-tokenByIndex}."
      },
      "tokenOfOwnerByIndex(address,uint256)": {
        "details": "See {IERC721Enumerable-tokenOfOwnerByIndex}."
      },
      "totalSupply()": {
        "details": "See {IERC721Enumerable-totalSupply}."
      },
      "transferFrom(address,address,uint256)": {
        "details": "See {IERC721-transferFrom}."
      }
    },
    "version": 1
  },
  "userdoc": {
    "kind": "user",
    "methods": {},
    "version": 1
  }
}